{
  "contractName": "StructDemo",
  "abi": [
    {
      "inputs": [
        {
          "internalType": "uint256",
          "name": "bid",
          "type": "uint256"
        },
        {
          "internalType": "string",
          "name": "product_name",
          "type": "string"
        },
        {
          "internalType": "string",
          "name": "quantity",
          "type": "string"
        },
        {
          "internalType": "string",
          "name": "mdate",
          "type": "string"
        },
        {
          "internalType": "string",
          "name": "price",
          "type": "string"
        },
        {
          "internalType": "string",
          "name": "expire_date",
          "type": "string"
        },
        {
          "internalType": "string",
          "name": "image",
          "type": "string"
        },
        {
          "internalType": "uint256",
          "name": "mid",
          "type": "uint256"
        }
      ],
      "name": "addProduct",
      "outputs": [],
      "stateMutability": "nonpayable",
      "type": "function"
    }
  ],
  "bytecode": "0x608060405234801561001057600080fd5b50610768806100206000396000f3fe608060405234801561001057600080fd5b506004361061002b5760003560e01c8063a4c3bc4c14610030575b600080fd5b61004a600480360381019061004591906102eb565b61004c565b005b60006040518061010001604052808a815260200189815260200188815260200187815260200186815260200185815260200184815260200183815250905060008190806001815401808255809150506001900390600052602060002090600802016000909190919091506000820151816000015560208201518160010190816100d59190610660565b5060408201518160020190816100eb9190610660565b5060608201518160030190816101019190610660565b5060808201518160040190816101179190610660565b5060a082015181600501908161012d9190610660565b5060c08201518160060190816101439190610660565b5060e082015181600701555050505050505050505050565b6000604051905090565b600080fd5b600080fd5b6000819050919050565b6101828161016f565b811461018d57600080fd5b50565b60008135905061019f81610179565b92915050565b600080fd5b600080fd5b6000601f19601f8301169050919050565b7f4e487b7100000000000000000000000000000000000000000000000000000000600052604160045260246000fd5b6101f8826101af565b810181811067ffffffffffffffff82111715610217576102166101c0565b5b80604052505050565b600061022a61015b565b905061023682826101ef565b919050565b600067ffffffffffffffff821115610256576102556101c0565b5b61025f826101af565b9050602081019050919050565b82818337600083830152505050565b600061028e6102898461023b565b610220565b9050828152602081018484840111156102aa576102a96101aa565b5b6102b584828561026c565b509392505050565b600082601f8301126102d2576102d16101a5565b5b81356102e284826020860161027b565b91505092915050565b600080600080600080600080610100898b03121561030c5761030b610165565b5b600061031a8b828c01610190565b985050602089013567ffffffffffffffff81111561033b5761033a61016a565b5b6103478b828c016102bd565b975050604089013567ffffffffffffffff8111156103685761036761016a565b5b6103748b828c016102bd565b965050606089013567ffffffffffffffff8111156103955761039461016a565b5b6103a18b828c016102bd565b955050608089013567ffffffffffffffff8111156103c2576103c161016a565b5b6103ce8b828c016102bd565b94505060a089013567ffffffffffffffff8111156103ef576103ee61016a565b5b6103fb8b828c016102bd565b93505060c089013567ffffffffffffffff81111561041c5761041b61016a565b5b6104288b828c016102bd565b92505060e06104398b828c01610190565b9150509295985092959890939650565b600081519050919050565b7f4e487b7100000000000000000000000000000000000000000000000000000000600052602260045260246000fd5b6000600282049050600182168061049b57607f821691505b6020821081036104ae576104ad610454565b5b50919050565b60008190508160005260206000209050919050565b60006020601f8301049050919050565b600082821b905092915050565b6000600883026105167fffffffffffffffffffffffffffffffffffffffffffffffffffffffffffffffff826104d9565b61052086836104d9565b95508019841693508086168417925050509392505050565b6000819050919050565b600061055d6105586105538461016f565b610538565b61016f565b9050919050565b6000819050919050565b61057783610542565b61058b61058382610564565b8484546104e6565b825550505050565b600090565b6105a0610593565b6105ab81848461056e565b505050565b5b818110156105cf576105c4600082610598565b6001810190506105b1565b5050565b601f821115610614576105e5816104b4565b6105ee846104c9565b810160208510156105fd578190505b610611610609856104c9565b8301826105b0565b50505b505050565b600082821c905092915050565b600061063760001984600802610619565b1980831691505092915050565b60006106508383610626565b9150826002028217905092915050565b61066982610449565b67ffffffffffffffff811115610682576106816101c0565b5b61068c8254610483565b6106978282856105d3565b600060209050601f8311600181146106ca57600084156106b8578287015190505b6106c28582610644565b86555061072a565b601f1984166106d8866104b4565b60005b82811015610700578489015182556001820191506020850194506020810190506106db565b8683101561071d5784890151610719601f891682610626565b8355505b6001600288020188555050505b50505050505056fea2646970667358221220f8db9c0fc20121028831e43927c25194ab6acf39a7f09a9ad9311e3f8c78bae664736f6c63430008130033",
  "immutableReferences": {},
  "source": "// Solidity program\r\n// to store\r\n// Employee Details\r\npragma solidity >=0.4.22 <0.9.0;\r\n\r\n// Creating a Smart Contract\r\ncontract StructDemo{\r\n\r\n// Structure of employee\r\nstruct product{\r\n\t// State variables\r\n\tuint bid;\r\n\tstring product_name;\r\n\tstring quantity;\r\n\tstring mdate;\r\n\tstring price;\r\n\tstring expire_date;\r\n\tstring image;\r\n\tuint mid;\r\n}\r\n\r\nproduct []emps;\r\n\r\n\r\n// Function to add\r\n// products details\r\nfunction addProduct(uint bid, string memory product_name,string memory quantity,string memory mdate,string memory price,string memory expire_date,string memory image,uint mid) public{\r\n\tproduct memory e =product(bid, product_name,quantity,mdate,price,expire_date,image,mid);\r\n\temps.push(e);\r\n}\r\n\r\n}\r\n",
  "sourcePath": "C:\\Users\\ssree\\PycharmProjects\\couterfeitproduct\\BlockChain\\contracts\\Counterfeits.sol",
  "compiler": {
    "name": "solc",
    "version": "0.8.19+commit.7dd6d404.Emscripten.clang"
  },
  "schemaVersion": "3.4.13",
  "updatedAt": "2023-04-20T06:03:50.454Z",
  "networkType": "ethereum",
  "devdoc": {
    "kind": "dev",
    "methods": {},
    "version": 1
  },
  "userdoc": {
    "kind": "user",
    "methods": {},
    "version": 1
  }
}